:020000040800F2
:100000004807002099010008A1010008A301000889
:10001000A5010008A7010008A901000800000000D0
:10002000000000000000000000000000AB0100081C
:10003000AD01000800000000AF0100088D1E00089F
:10004000B3010008B3010008B3010008B3010008C0
:10005000B3010008B3010008B3010008B3010008B0
:10006000B3010008B3010008B3010008B3010008A0
:10007000B3010008B3010008B3010008B301000890
:10008000B3010008B3010008B3010008B301000880
:10009000B3010008B3010008B3010008B301000870
:1000A000B3010008B3010008B3010008B301000860
:1000B000B3010008B3010008B3010008B301000850
:1000C000B3010008B3010008B3010008B301000840
:1000D000B3010008F1200008B3010008B3010008D3
:1000E000B3010008B3010008B301000800F002F8F2
:1000F00000F043F80AA090E8000C82448344AAF17F
:100100000107DA4501D100F038F8AFF2090EBAE87C
:100110000F0013F0010F18BFFB1A43F0010318473B
:100120002C2500004C250000103A24BF78C878C167
:10013000FAD8520724BF30C830C144BF04680C60ED
:10014000704700000023002400250026103A28BF35
:1001500078C1FBD8520728BF30C148BF0B60704739
:100160001FB500F02DF904000020002102F07CF8FA
:10017000401C60601FBD10B510BD00F0FCF81146BA
:10018000FFF7EEFF01F0D6FF00F02CF903B4FFF704
:10019000F2FF03BC00F070F90948804709480047A6
:1001A000FEE7FEE7FEE7FEE7FEE7FEE7FEE7FEE727
:1001B000FEE7FEE704480549054A064B7047000084
:1001C000DD1E0008ED00000848010020480700205F
:1001D000480300204803002070B5064600F034F8BC
:1001E0000468054630460A22002100F031F82C60F0
:1001F00070BD4FF0000200B5134694469646203974
:1002000022BFA0E80C50A0E80C50B1F12001BFF4CF
:10021000F7AF090728BFA0E80C5048BF0CC05DF835
:1002200004EB890028BF40F8042B08BF704748BF83
:1002300020F8022B11F0804F18BF00F8012B7047F7
:10024000704770477047000000487047E800002082
:100250002DE9F04791460F4680460446002614F8E3
:10026000015B2DB100F030F80068405DC007F6D1A9
:100270002B2D02D02D2D18D0641E4A46394620461B
:1002800000F02AF827B13968A14201D1C7F80080EF
:100290004FF0020471050BD54042002803DDFFF743
:1002A000D3FF0460A007BDE8F08746F48066E4E76A
:1002B0000028F8DAFFF7C8FF04606FF00040F2E7AB
:1002C00000487047E800002010B500F079F8001DE4
:1002D00010BD00BF951F00002DE9F05F8246154656
:1002E0008B4600270AF10104B9460078302801D076
:1002F0009DB113E014F8010B0127782803D058288A
:1003000001D045B10AE00DB1102D07D1002714F836
:10031000010B102502E0082500E00A250026B04662
:100320000EE005FB080005FB06F101271FFA80F827
:1003300001EB1046B6F5803F00D3B94614F8010B27
:10034000294600F041F80028EBDABBF1000F05D098
:100350000FB1641E00E05446CBF80040B9F1000F25
:1003600006D0FFF771FF02210160C81EBDE8F09FB3
:1003700048EA0640FAE77546FFF7A2FFAE460500D9
:100380006946534620F00700854618B020B5FFF7B0
:1003900011FFBDE820404FF000064FF000074FF07E
:1003A00000084FF0000B21F00701AC46ACE8C00993
:1003B000ACE8C009ACE8C009ACE8C0098D4670479C
:1003C00000487047080100203A2800D2303820F059
:1003D0002002412A01D3A2F13700884201D34FF015
:1003E000FF30704710B50446AFF300802046BDE8EB
:1003F0001040FFF7CBBE00004FF0013C50F8042B3B
:1004000051F8043B9A4221D1A2EB0C03934313EA27
:10041000CC1317D150F8042B51F8043B9A4215D154
:10042000A2EB0C03934313EACC130BD150F8042B2B
:1004300051F8043B9A4209D1A2EB0C03934313EA0F
:10044000CC13DBD04FF00000704700BFD01A01BAC8
:10045000B1FA81F101F0180122FA01F0CB40C1F1AB
:100460002001DBB2C0B2C01A2CFA01F3D11A9143B9
:1004700011EAC311E6D1704701491820ABBEFEE76F
:1004800026000200704772B6962000F071F8FBE774
:1004900010B590F821100022022905D004218163B3
:1004A00080F82020012010BD01680B6823F00E03A6
:1004B0000B6001680B6823F001030B6090F840307B
:1004C000C46B012101FA03F3636080F8211080F806
:1004D0002020104610BD000010B590F82110002417
:1004E000022903D00421816301243DE001680A68E8
:1004F00022F00E020A6001680A6822F001020A6016
:100500001A4A0168914201D1012121E0174A1432AF
:10051000914201D110211BE0144A2832914201D1AD
:10052000891515E0114A3C32914201D189140FE03E
:100530000E4A5032914202D14FF4803108E00B4A0A
:100540006432914202D14FF4801101E04FF080718A
:10055000064A083A5160012180F82110002180F8F4
:100560002010416B01B18847204610BD08000240B1
:1005700070B5044600F0FEF80546601C02D0044841
:100580000078044400F0F6F8401BA042FAD370BD96
:100590001C0000202DE9F84FDFF8B8910024A9F1E4
:1005A000040B23460F2709F1040AABF1040EC9E03E
:1005B0000125A5402A40AA427DD1674ED1F804C04A
:1005C000ACEB0608B44532D014DCBCF1030F3AD0D2
:1005D00009DCBCF1000F2AD0BCF1010F1CD0BCF12A
:1005E000020F31D11DE0BCF1110F17D0BCF1120F79
:1005F0002AD119E0B8F5881F19D006DCB8F5803F7C
:1006000015D0B8F5801F1FD111E0B8F5001F0ED02E
:10061000B8F5041F18D10AE0CB6815E0CB681B1DA4
:1006200012E0CB6808330FE0CB680C330CE08B682A
:100630002BB1012B4FF0080303D0456104E00423E4
:1006400002E0056100E00023FF2A01D8064601E030
:1006500000F104064FEA840501D9A5F12005D6F87A
:10066000008007FA05FC28EA0C0803FA05F548EAB9
:100670000508C6F800804D68ED0062D5374DAE69BB
:1006800046F00106AE61AD6924F0030605F00105F0
:100690000095334D06EB050CDCF80850A607360F25
:1006A00007FA06F825EA0805DFF8B880404503D1C7
:1006B0004FF0000817E044E0DFF8AC80404502D17D
:1006C0004FF001080FE0DFF8A480404502D14FF061
:1006D000020808E0DFF89880404502D14FF0030897
:1006E00001E04FF0040808FA06F848EA0508CCF8DB
:1006F00008804D68D9F80060ED024D4601D51643DB
:1007000000E096432E604D68DAF80060AD02554671
:1007100001D5164300E096432E604D68DBF800607B
:10072000AD035D4601D5164300E096432E604D684B
:10073000DEF80060ED03754601D5164300E09643F0
:100740002E60641C0D682A46E5407FF431AFBDE899
:10075000F88F000008040140000011100010024052
:100760000000014000080140000C01400010014061
:100770000014014001488068704700001C00002000
:1007800070B5040025D094F83D00002520B984F808
:100790003C50204600F034FB242084F83D002068C3
:1007A000016821F0010101602068016841F4004105
:1007B00001602068016821F40041016000F07CFCC8
:1007C0004D4A6168914201D84C4900E04C49884249
:1007D00001D2012070BD4B492368B0FBF1F15E6886
:1007E00026F03F060E435E606368934206D94FF4DD
:1007F000967359434FF47A73B1FBF3F12368491CA4
:100800001E6A26F03F06314319626168914210D892
:100810004900401EB0FBF1F2521CC2F30B02042A45
:1008200001D2042022E0B0FBF1F0401CC0F30B0029
:100830001CE0A268F2B301EBC10303EB0116431EF7
:10084000B3FBF6F35B1C43F480431B0549D092B322
:1008500001EBC10202EB0111401EB0FBF1F0401CA4
:10086000C0F30B0040F4804040F400402168CA69A6
:100870004CF6FF739A431043C861D4E90710014353
:100880002068026822F0C00211430160D4E903012C
:1008900001432068826848F2FF339A431143816024
:1008A000D4E9050108432168CA6822F0FF02104319
:1008B000C86001E00EE016E02068016841F0010127
:1008C00001602564202084F83D00256384F83E50B3
:1008D000002070BD01EB4106431EB3FBF6F35B1C29
:1008E000B3E70120C2E701EB4101401EB0FBF1F08C
:1008F000401CC0F30B00B7E7A086010080841E00F7
:1009000000093D0040420F002DE9FF4F81B08946AC
:100910000446FFF72FFF054694F83D004FF000080E
:1009200020287DD11923012250492046009501F04D
:10093000C1F8002874D194F83C00012870D001203F
:1009400084F83C0020680168C90703D1016841F0C0
:10095000010101602068016821F400610160242028
:1009600084F83D00002626644148E0624FF0011BF8
:1009700020272068016841F4807101600095002201
:1009800059462046049B01F095F850B12068006854
:10099000C00502D54FF400702064032005B0BDE807
:1009A000F08F216809F0FE000861FFF7E3FE21687F
:1009B000054648694969C0F34000C1F380214FF002
:1009C000A00A0FE0FFF7D6FE411B0498814200D831
:1009D00008B984F83DA0216848694969C0F340001E
:1009E000C1F3802194F83D20A02A02D008B9002943
:1009F000E8D084F83D7020684169C943890716D45E
:100A0000016841F40071016020684169806919231F
:100A1000012216492046009501F04CF8B8B900E0D3
:100A200021E084F83D7084F83C600020B6E701685E
:100A300041F40071016021686FF4806048611923FE
:100A400001220A492046009501F034F808B101203E
:100A5000A4E7039808F1010880458AD384F83D7023
:100A600084F83C60F3E7022098E7000002001000E1
:100A70000000FFFF2DE9FF4F83B00025DDE910796D
:100A80009A4693460446DDF848800095FFF772FECB
:100A9000064694F83D0020287CD11923012288497C
:100AA0002046009601F006F80028F5D194F83C00A5
:100AB00001286FD0012084F83C0020680168C90734
:100AC00003D1016841F0010101602068016821F44F
:100AD00000610160222084F83D00402084F83E003F
:100AE00025646762A4F82A90608D20857548E062CD
:100AF000CDE9008653465A462046049900F0DCFEB4
:100B000000287CD1208DDFF8C091202768B1012812
:100B100014D00228206801681ED041F48061016071
:100B20002068416980690090BCE020684169816962
:100B30000091016841F400710160B3E02068016830
:100B400021F48061016072B6206841698169009179
:100B5000016841F400710AE041F40061016072B67D
:100B60002068416981690091016821F48061016018
:100B700062B697E0032865D801280CD002284346C6
:100B80004FF000024946204600960BD000F092FF3D
:100B9000A8BB0CE091E032464146204601F030F817
:100BA00068BB72E000F086FF48BB72B633E0206895
:100BB000016821F48061016072B620680069616A91
:100BC0000870606A401C6062208D401E2085608D28
:100BD000401E60853D4846F2A8110068B0FBF1F068
:100BE000C0EBC00000EB80000090401E009007D0DA
:100BF00020684069C04340070DD50098F5E727E01D
:100C000044F8305F6773A573206940F020002061CD
:100C100062B625731CE02068016841F40071016030
:100C200020680069616A0870606A401C6062218DFA
:100C3000491E2185618D491E618562B62168096959
:100C4000017026E032464146204600F0D9FF18B137
:100C5000012007B0BDE8F08F20680069616A087064
:100C6000606A401C6062208D401E81B22185608DCB
:100C7000401E608520684269D243520712D403297E
:100C800003D1016821F48061016020680069616A14
:100C90000870606A401C6062208D401E2085608D57
:100CA000401E6085208D00287FF464AF84F83D707D
:100CB00084F83E5084F83C50CBE70220C9E700009E
:100CC000020010000000FFFF0400010028000020C7
:100CD0002DE9FF4F83B09A46DDE91197934604460C
:100CE000DDF84080FFF746FD054694F83D002028DA
:100CF0007FD11923012240492046009500F0DAFEF9
:100D0000002876D194F83C00012872D0012084F8A4
:100D10003C0020680168C90703D1016841F0010166
:100D200001602068016821F400610160212084F8DD
:100D30003D00402084F83E0000262664C4F824804C
:100D4000A4F82A90608D20852C48E062CDE90075DA
:100D500053465A462046049900F02CFE70B930E004
:100D60002A463946204600F083FF58B1206C0428FB
:100D700004D12068016841F400710160012007B0CE
:100D8000BDE8F08F606A216800780861606A401CE5
:100D90006062218D491E89B22185628D521E628555
:100DA00022685369DB435B070BD469B1007810619B
:100DB000606A401C6062208D401E2085608D401E50
:100DC0006085208D0028CBD12A463946204600F088
:100DD00045FE0028CAD154F83D0B016841F400716A
:100DE0000160202004F81E09E67766770020C6E738
:100DF000FFE70220C3E70000020010000000FFFF31
:100E000000B585B000210091019102910391006825
:100E10000F4988421AD10F48816941F00801816168
:100E2000816901F008010491C16941F40011C161B7
:100E3000C069694600F400100490C02000901220A0
:100E40000190032003900448FFF7A4FB05B000BD08
:100E50000054004000100240000C0140024881682C
:100E600002781144816070471C000020074810B5CB
:100E7000016841F010010160032000F075F80F20B7
:100E800000F006F800F024F8002010BD0020024019
:100E900070B50D4D04464FF47A712878B1FBF0F02F
:100EA0000A490968B1FBF0F000F0DCFA48B9102CEF
:100EB00007D200222146501E00F036F800206C6058
:100EC00070BD012070BD00001C0000202800002023
:100ED0000C4808B5816941F001018161816901F027
:100EE00001010091C16941F08051C161C06900F008
:100EF000805000900448416821F0E06141F00071A9
:100F0000416008BD0010024000000140002809DBDC
:100F100000F01F02012191404009800000F1E02013
:100F2000C0F8001170470000F0B40E4B1B680C466F
:100F3000C3F30223C3F10705042D00D90425191DAD
:100F4000072901D2002300E0DB1E012606FA05F185
:100F5000491E214099409E40761E16403143F0BC08
:100F600001F0D8B80CED00E0064900F0070208686F
:100F70004FF6FF03184040EA0220034A104308607E
:100F8000704700000CED00E00000FA052DE9F04785
:100F90000F46050061D0434E306800F00700B842AC
:100FA00009D2306820F0070038433060306800F024
:100FB0000700B84251D128683B4C810712D5400741
:100FC00003D5606840F4E06060602878000703D5CE
:100FD000606840F4605060606068A96820F0F000CC
:100FE000084360602878C00728D06868012810D0BE
:100FF0002168022810D0890700292EDA616821F0C3
:10100000030101436160FFF7B5FB804641F2883977
:101010000DE021688903EFE78901EDE7FFF7AAFBFF
:10102000A0EB0801494502D90320BDE8F0876068BC
:10103000696800F00C00B0EB810FEFD1306800F070
:101040000700B8420BD9306820F007003843306001
:10105000306800F00700B84201D00120E5E72878A9
:10106000400705D56068E96820F4E06008436060E7
:101070002878000706D56068296920F4605040EAA6
:10108000C100606000F038F86168084AC1F30311DC
:10109000515CC8400649086006480068FFF7F8FE42
:1010A0000020C2E700200240001002403426000861
:1010B00028000020200000200448054900684968F5
:1010C000044AC1F30221515CC84070472800002047
:1010D0000010024044260008044805490068496899
:1010E000044AC1F3C221515CC84070472800002067
:1010F00000100240442600080E4A51680E4801F0D4
:101100000C03042B11D0082B0FD10C48C1F38343DF
:10111000C903C05C0AD55168084AC1F34041921E18
:10112000515C054A5043B0FBF1F070470449484315
:10113000704700000010024000127A0024260008C8
:1011400000093D002DE9F84F040070D02078C04D13
:10115000C00749D06868C0F38100012807D06868DB
:10116000C0F38100022809D16868C00306D5286849
:10117000800339D560680028E7D035E06068B0F5B5
:10118000803F0BD010B1B0F5A02F11D0286820F40B
:1011900080302860286820F4802002E0286840F42D
:1011A00080302860606890B1FFF7E4FA06460AE0F4
:1011B000286840F480202860F0E700BFFFF7DAFAE3
:1011C000801B642873D828688003F7D50CE0FFF7EC
:1011D000D1FA064605E000BFFFF7CCFA801B642871
:1011E000F0D828688003F7D420789A4E80074FF013
:1011F00001094FF0000839D5686810F00C0F07D0CE
:101200006868C0F38100022809D16868C00306D469
:101210002868800714D52069012808D110E02069CA
:10122000B0B1C6F80090FFF7A5FA074605E00AE15D
:10123000FFF7A0FAC01B0228C4D828688007F7D59A
:101240002868616920F0F80040EAC10028600DE0DC
:10125000C6F80080FFF78EFA074604E0FFF78AFA27
:10126000C01B022823D828688007F7D420780007FD
:101270002CD57948A169D9B1C0F80090FFF77AFA66
:10128000074604E0FFF776FAC01B02280FD8686A09
:101290008007F7D571484FF4FA510068B0FBF1F0C0
:1012A000009000BF0098411E0091FAD20EE080E04D
:1012B000C0F80080FFF75EFA074604E0FFF75AFA2D
:1012C000C01B022875D8686A8007F7D420784007C9
:1012D00060D5E8690027C00008D4E86940F0805074
:1012E000E861E869012700F0805000905C480168DF
:1012F000C90513D40168834641F480710160FFF78A
:1013000039FA824606E000BFFFF734FAA0EB0A0084
:1013100064284ED8DBF80000C005F5D5E068012848
:101320000AD008B1052813D0286A20F001002862ED
:10133000286A20F0040002E0286A40F001002862D8
:10134000E06841F2883B98B1FFF714FA82460BE05F
:10135000286A40F004002862EEE700BFFFF70AFAAF
:10136000A0EB0A0159455AD8286A8007F6D50CE047
:10137000FFF700FA824605E0FFF7FCF9A0EB0A014F
:1013800059454CD8286A8007F6D41FB1E86920F087
:101390008050E861E06988B36968C1F3810102297E
:1013A00044D00228C6F8608004D0FFF7E3F9044671
:1013B00038E034E0FFF7DEF9074604E0FFF7DAF93A
:1013C000C01B02282BD828688001F7D4206AB0F50A
:1013D000803F05D16868A16820F400300843686048
:1013E000D4E908010843696821F47411084368606E
:1013F000C6F86090FFF7BEF9044606E025E000BF9E
:10140000FFF7B8F9001B022809D828688001F7D532
:101410001BE000BFFFF7AEF9001B022802D9032032
:10142000BDE8F88F28688001F4D40EE00128F7D0D9
:101430006868226A00F48031914204D1616A00F444
:101440007010884201D00120EAE70020E8E70000A0
:101450000010024000004242800442422800002066
:101460000070004010B5401EB0F1807F01D3012014
:1014700010BD4FF0E02460610F21601700F04AFEBC
:101480000020A06107202061002010BD7047704738
:10149000F8B5016804460868CA684B6910F00F0F78
:1014A0004FF0000559D003F0010602F4907737435E
:1014B00065D0C10705D0D10503D5616C41F00101AC
:1014C0006164410705D5D90703D0616C41F0020181
:1014D0006164810705D5D90703D0616C41F004012F
:1014E0006164010707D502F02001314303D0616C2C
:1014F00041F008016164616C00293AD0800604D58E
:10150000900602D5204600F019FD20684069616C04
:10151000C0F38010090700D460B3204600F0E7FC58
:1015200020684069400621D52068143050E8001F2B
:1015300021F0400140E80012002AF5D1E06BA8B18B
:101540006D494163E06BFEF7C7FF002811D0E06BE7
:10155000416B01B0BDE8F040084783060FD5930604
:101560000DD52046BDE8F84000F0E8BC2046FFF766
:101570008EFFF8BD2046FFF78AFF6564F8BD266B35
:101580002023012E7CD1C6067AD5D60678D50868E8
:101590004868009048694FF00206400640D5E16B6C
:1015A000086840680004000CE8D0A28D8242E5D9AA
:1015B000E085886920282DD020680C3050E8001F75
:1015C00021F4807140E80012002AF5D1206814301F
:1015D00050E8001F21F0010140E80012002AF5D177
:1015E0002068143050E8001F21F0400140E800124C
:1015F000002AF5D184F84230256320680C3050E889
:10160000001F21F0100140E80012002AF5D1E06B24
:10161000FEF73EFF6663A08DE18D401A81B22AE09D
:10162000A08DE18D401A81B2E08D0028A6D000295E
:10163000A4D022680C3252E8000F20F4907042E8E7
:101640000007002FF5D12068143050E8002F22F059
:10165000010240E80027002FF5D184F842302563CD
:1016600020680C3050E8002F22F0100240E80023E0
:10167000002BF5D166632046FFF708FFF8BDFFE7B2
:1016800005062BD5150629D594F841002128F5D15A
:10169000A068B0F5805F01D12069B0B1206A411C1B
:1016A0002162216800784860E08C401E0004000C34
:1016B000E084E3D12068C16821F08001C160206826
:1016C000C16841F04001C160D8E7206A0088C0F3DA
:1016D00008004860206A801C2062E5E74006CDD5FE
:1016E0005006CBD5CA68204622F04002CA6084F872
:1016F000413000F0C9F8C1E7DF1E000870B50400F2
:1017000004D094F84100002510B106E0012070BD1E
:1017100084F84050204600F023F8242084F841004B
:101720002068C16821F40051C160204600F068FCC7
:101730002068016921F4904101612068416921F02C
:101740002A0141612068C16841F40051C1606564AB
:10175000202084F8410084F842006563002070BDB9
:1017600030B585B00024009401940294039400687D
:10177000184988422CD11848816941F4804181611F
:10178000816901F480410491816941F00401816122
:101790008069124D00F0040004904FF40070009036
:1017A000022001900320039069462846FEF7F2FECE
:1017B0002815CDE90004694628460294FEF7EAFEA2
:1017C000002201212520FFF7AFFB2520FFF79EFB1C
:1017D00005B030BD00380140001002400008014053
:1017E00090F84230202B01D00220704721B11AB16D
:1017F0000023036300F060BC0120704770B50068EF
:101800001E49884239D11E4C1E4A002661780A2999
:101810000AD00D2908D020781F2824D2207802442D
:10182000401C207011701FE02078E8B12078154D21
:1018300016542878532816D168783138032812D2E4
:10184000A8783A280FD1E81CFEF7C6FC002801DA78
:10185000002002E0B42800DDB42081B2687830387E
:10186000C0B200F06DFA26700549BDE87040054829
:101870000122491C4838FFF7B3BF70BD0038014052
:1018800018000020C8000020704701684A69D24350
:1018900052050FD46FF480624A61002140F8301F76
:1018A000202242738173026942F0040202610173D3
:1018B00001207047002070472DE9F84F044600686A
:1018C00089460B9D01689846174641F48061016086
:1018D0002068016841F48071016000954FF0011BA0
:1018E0000022594620460A9B00F0E4F84FF4007AA3
:1018F00040B120680068C00501D5C4F840A00320AD
:10190000BDE8F88F216809F0FE0008612B462849E0
:1019100020460A9A00F016F9F0BB206841698069F8
:1019200000902A4620460A9900F0A2F940B1206CA6
:1019300004283AD12068016841F40071016034E064
:10194000FEB2B8F1010F09D02168380A08612A46B1
:1019500020460A9900F08CF90028E8D12068066139
:101960002A4620460A9900F083F90028DFD1206832
:10197000016841F4807101600095002259462046BB
:101980000A9B00F097F80028B3D1216809F0FF0006
:1019900040F00100086100E007E02B4604492046C2
:1019A0000A9A00F0CFF80028AAD00120A8E700008A
:1019B000020001002DE9F843044600680D46DDE908
:1019C000089701689846164641F4807101604B46BD
:1019D00000224FF001112046009700F06BF848B14B
:1019E00020680068C00502D54FF400702064032011
:1019F000BDE8F883216805F0FE0008613B464A46D1
:101A00001549204600F09EF888B920684169806930
:101A100000903A464946204600F02AF948B1206C29
:101A2000042804D12068016841F40071016001209C
:101A3000DEE7F5B2B8F1010F09D02168300A08617C
:101A40003A464946204600F013F90028E7D12068BD
:101A500005610020CCE700000200010070B51646C9
:101A60000D4604461EE02046FFF70FFF08B1012097
:101A700070BD681C16D0FEF77DFE801BA84200D802
:101A800085B920684069C04340070BD5002044F861
:101A9000300F20216173A073216941F02001216181
:101AA0002073E4E720684069C0434007DBD400208E
:101AB00070BD00002DE9F047984617460D460446D4
:101AC000C1F30746DDF820902AE000BFB8F1FF3FE0
:101AD00026D0FEF74FFEA0EB0901414502D8B8F130
:101AE000000F1DD12068012E16D0806925EA000064
:101AF0000004000C12D00020B84211D1002044F89C
:101B0000300F20216173A073216941F02001216110
:101B100020730120BDE8F0874069E7E70120EBE78B
:101B20002068012E0AD0806925EA00000004000C1C
:101B300006D00020B842C9D00020EBE74069F3E7A7
:101B40000120F7E72DE9F047984616460D46044672
:101B50004FF000094FF0200AC1F3074723E0206847
:101B60004069C043400515D42068016841F4007104
:101B7000016021686FF480604861C4F8309084F897
:101B80003DA084F83E90216C41F00401216484F86A
:101B90003C9021E0701C06D0FEF7ECFDA0EB0800A5
:101BA000B04203D816B1012F1FD021E02068012FC9
:101BB00015D0806925EA00000004000C18D000BF91
:101BC00044F8309F84F80DA084F80E90216941F00C
:101BD0002001216184F80C900120BDE8F087406964
:101BE00025EA00000004000CEAD12068406901E009
:101BF0002068806925EA00000004000CAFD1ECE702
:101C00002DE9F041002590460E460446202728E0A5
:101C10004069C043C0060CD454F8301B6FF010006C
:101C2000486144F810596777A577206A20622577C4
:101C300014E0FEF79FFDA0EB0800B04200D886B983
:101C400020684069C04340060BD544F8305F677395
:101C5000A573206940F02000206125730120BDE8B4
:101C6000F08120684169C9434906D1D40020F6E7D4
:101C700070B516460D4604461EE02046FFF705FEE9
:101C800008B1012070BD681C16D0FEF773FD801BE3
:101C9000A84200D885B920684069C04300060BD52A
:101CA000002044F8300F20216173A073216941F0B6
:101CB000200121612073E4E720684069C0430006E9
:101CC000DBD4002070BD00000D4810B50B49016049
:101CD0000C49416000214FF480428160C0E9031249
:101CE00041618161C1610162FEF74AFD002803D0B4
:101CF000BDE81040FEF7C7BB10BD00000054004017
:101D00002C000020A08601000C4810B50A49016093
:101D10004FF4E1314160002181600C22C160C0E9D3
:101D200004128161C161FFF7E9FC002803D0BDE81E
:101D30001040FEF7A8BB10BD003801408000002015
:101D400010B50446401E03280AD2B42900D9B42194
:101D5000084600F02DFB034901EB840141F8040C17
:101D600010BD00000C0000207FB5410005460C4668
:101D7000642303222448FEF7C7FDE0BB03A800222A
:101D8000214600908DF80C2064230124CDE9014305
:101D900023461D48FEF76EFE68BB9DF80C0000212F
:101DA00020F0800040F01002284600F04BFA10BBF3
:101DB0007922FE21284600F045FAE0B920220021D0
:101DC000284600F03FFAB0B90520FEF7D1FBA0226B
:101DD0000021284600F036FA68B90422012128467D
:101DE00000F030FA38B9002400231A46214628466C
:101DF00000F026F810B1012004B070BD641CE4B2FC
:101E0000102CF1D30020F7E72C000020B42A00D9D1
:101E1000B4224FF4FA635A43B423B2FBF3F2120331
:101E200044F6206302F5FA12B2FBF3F2B2F5805FDA
:101E300001D340F6FF7293B2002200F001B8000017
:101E40001FB50F2902D9012004B010BDC2F30B0445
:101E5000062202EB8101CAB28DF80C40210AC3F3BD
:101E60000B038DF80D108DF80E30190A8DF80F1038
:101E700041006424042303A88DE8190001230248CB
:101E8000FEF726FFE0E700002C000020FEF7E6BF8B
:101E900010B590B028216846FEF7ABF914210AA8C6
:101EA000FEF7A7F9022000900120049010200024E2
:101EB000059007946846FFF745F958B90F20CDE91A
:101EC0000A040C940D9400210AA80E94FFF75EF802
:101ED000002801D0FEF7D7FA10B010BD704710B53A
:101EE000406A0021C185C184FFF7D1FA10BD0168A5
:101EF0000C3151E8002F22F4907241E80023002BAE
:101F0000F5D10168143151E8002F22F0010241E8B7
:101F10000023002BF5D1016B012909D101680C3197
:101F200051E8002F22F0100241E80023002BF5D1E8
:101F3000202180F8421000210163704708B590F815
:101F40004210222901D0022008BD82684FF480533C
:101F50009A4201D1016921B1816A9A421BD04AB1EA
:101F60000AE00268816A5268C2F308020A80816A44
:101F7000891C08E0026972B10268526802F07F02AF
:101F80000A70816A491C8162C18D491E0904090CCD
:101F9000C18503D01BE002685268F1E70168CA6896
:101FA00022F02002CA600168CA6822F48072CA6006
:101FB00001684A6922F001024A61202180F842103A
:101FC00000214163026B012A03D0FFF717FC0020B8
:101FD00008BD016301680C3151E8002F22F01002A6
:101FE00041E80023002BF5D101680A68D20602D52A
:101FF0000A6849680091818DFFF748FAE7E7000019
:1020000070B5044600680169E26821F4405111434B
:1020100001612169A0680843616908432168CA68B1
:1020200041F20C639A430243CA6020684169A26985
:1020300021F44071114341611E492068884202D158
:10204000FFF74AF801E0FFF737F800EBC00101EBBA
:102050000012606864218000B2FBF0F3B3FBF1F37F
:102060006FF018067343B2FBF0F5B2FBF0F605EB28
:102070008305322303EB0515B5FBF1F5B6FBF1F64D
:1020800005F0F00505EB0615B2FBF0F6B2FBF0F03B
:10209000B0FBF1F06FF01802504306EB800003EB49
:1020A0000010B0FBF1F0216800F00F0028448860B8
:1020B00070BD00000038014081628285C285002128
:1020C0004164222180F84210016921B10168CA6887
:1020D00042F48072CA6001684A6942F001024A61B2
:1020E0000068C16841F02001C16000207047000015
:1020F0000148FFF7CDB9000080000020034900200F
:1021000008700122491C0248FFF76ABB1800002032
:10211000800000200907090E002804DB00F1E02000
:1021200080F80014704700F00F0000F1E02080F804
:10213000141D7047FEF79AFEFFF7AAFEFFF7C4FDD5
:10214000FFF7E2FDFFF7DAFF4FF49670FEF710FAA3
:10215000FEF710FB044640F6B83507E0FEF70AFB31
:10216000001BA8420ED83220FEF702FA6423022296
:1021700080213148FEF7C8FB0028EFD14020FFF74F
:10218000F3FD08B1FEF77FF92C4D00244FF07C568B
:1021900055F82400B146314600F07CF800F0E8F82C
:1021A00082B221464020FFF731FE641CE4B2032CCA
:1021B000EED3FEF7DFFA214F06460C37FEF7DAFAC8
:1021C000801B142833D3DFF87880002416F114061E
:1021D00055F8241057F8240000F0AEF98246414625
:1021E00000F079F905D255F82400414600F052F884
:1021F0000DE088F00040514600F06DF905D255F829
:102200002400414600F098F901E057F8240045F811
:102210002400494600F03EF800F0AAF882B22146B8
:102220004020FFF7F3FD641CE4B2032CD0D301205F
:10223000FEF79EF9C2E700002C00002000000020FD
:10224000CCCC4C3F17B583B06424012305AA8DE89C
:102250001C0040000A4601460248FEF739FD06B060
:1022600010BD00002C00002010B500290AD008780D
:10227000002807D005487844FEF7BEF8002801D0B2
:10228000002010BD0248784410BD0000F603000095
:10229000EE03000090EA010F48BF81F0004100F119
:1022A0005281421A3CBF801A89184FEAD0524FF02F
:1022B0007F4C1CEA410FA2EBD15318BF9CEA026F7E
:1022C00000F03B804FF0004C4CEA00204CEA01212A
:1022D00021FA03FC10EB0C0C1ED202F1FF325FEA74
:1022E0001C2040EBC25038BF70471CF07F0F4FEAF4
:1022F000400C18BFBCF17F4F38BF7047C3F12003BB
:10230000994008BF20F00100BCF17F4F38BF7047F3
:10231000A0F1C04000F0DAB84FEA3C00000A40EB00
:10232000C25028BF1CF0FF0F4FEA400CE6D018BF88
:10233000BCF17F4F38BF7047EAE79CEA026F05D0D7
:1023400010EA5C0F08BF00F00040704710B500F0C5
:1023500077F800BF64FBBE3E401058BFC0F140405C
:10236000491058BFC1F140418142EFF300807047EE
:10237000C10DD1F19E0206DB4FEA002343F000437A
:1023800023FA02F07047004207D54FEA4001B1F14D
:10239000FE4F02D24FF00000704710B500F050F829
:1023A00049922480002070476FEA200070470000A7
:1023B000B0FA80F310FA03F2C3F19D030AD0D905F5
:1023C00001EB1220530638BF704700F1010008BF2F
:1023D00020F001007047000050EA010C00F113806A
:1023E0001CF5000F58BFBCF5000F01D488427047A0
:1023F00007D710F5000F58BF11F5000F15D488420C
:102400007047894270471CF5000F04D5BCF5000FDA
:10241000F7D5814270474FF0807C1CEB400F38BFEE
:102420001CEB410F01D28142704710B500F008F853
:10243000922449004FF000504FF08051FFF78CBFBD
:102440000EF1020E2EF0030E5EF8044B244204D46B
:102450004FEA4102B2F17F4F11D84FEA4003B3F186
:102460007F4F0CD80ED14FEAD07CB2F17F4F0CEBEE
:102470004C0C0CF1020C08BF4CEBD17C04E04FF08B
:10248000080C01E04FEAD17C0CEB4C0324FA03F476
:1024900004F00704B4F1040C06D20EEB840CBDE882
:1024A00010404CF0010C6047DFE80CF00708020216
:1024B0004FF00040A0F5800010BD0846420018BF54
:1024C000D2F1807288BF00F0004010BDFF2141EAC8
:1024D000D050C005704751EA000C00F113801CF584
:1024E000000F58BFBCF5000F01D48142704707D7D9
:1024F00011F5000F58BF10F5000F15D48142704739
:10250000894270471CF5000F04D5BCF5000FF7D5C4
:10251000884270474FF0807C1CEB410F38BF1CEBAA
:10252000400F01D28842704780EA010081EA000131
:1025300080EA0100FFF779BF90EA010F48BF81F000
:1025400000413FF5AEAE421A04D882F00042A0EB43
:10255000020011444FEAD0524FF07F4C1CEA410F69
:10256000A2EBD15318BF9CEA026F4AD04FF0004C47
:102570004CEA00204CEA012121FA03FCB0EB0C0CE0
:102580000FD412F0FE0F36D05FEA4C001DD50012BA
:1025900040EBC25038BF70471CF03F0F18BF704768
:1025A0000BE0A2F101025FEA1C2040EBC25038BFF1
:1025B00070471CF07F0F18BF7047C3F1200399408C
:1025C00014BF401E20F00100704780084FEA12231C
:1025D00008BF7047B0FA80FCA2EB0C02CCF1280CCB
:1025E00060FA0CF093EA122F04BF00EBC250704760
:1025F0004FEAC3707047130A5FEADC1008BF7047E8
:10260000F6E79CEA026F04D010EA5C0F08BF0020D6
:10261000704710B5FFF714FF40DFF63E81F0004031
:102620007047010202030405060708090A0B0C0D96
:102630000E0F101000000000000000000102030453
:102640000607080900000000010203047C270008B7
:10265000000000202C00000028010008A827000826
:102660002C0000201C07000044010008100100009D
:1026700043000000F8FFFFFF004040404040404062
:102680004040414141414140404040404040404045
:1026900040404040404040404005020202020202E9
:1026A0000202020202020202022020202020202038
:1026B000202020020202020202029090909090904C
:1026C000101010101010101010101010101010100A
:1026D000101010100202020202028888888888887E
:1026E000080808080808080808080808080808086A
:1026F0000808080802020202400000000000000072
:1027000000000000000000000000000000000000C9
:1027100000000000000000000000000000000000B9
:1027200000000000000000000000000000000000A9
:102730000000000000000000000000000000000099
:102740000000000000000000000000000000000089
:102750000000000000000000000000000000000079
:102760000000000000000000000000000000000069
:1027700000000000000000000000000000007042A7
:102780000000704200007042000070420000704281
:102790000000704200000000010000001000000076
:0827A0000000000000127A00A5
:04000005080000ED02
:00000001FF
